:100000000C9463000C948B000C948B000C94580798
:100010000C9458070C9458070C948B000C948B008C
:100020000C948B000C948B000C948B000C94D007D8
:100030000C948B000C948B000C948B000C948B0014
:100040000C940E070C948B000C94DC060C94B606F2
:100050000C948B000C948B000C948B000C948B00F4
:100060000C948B000C948B000000000024002700EF
:100070002A0000000008000201000003040700003D
:1000800000000000000000000000230026002900FE
:1000900000000000250028002B00040404040404D0
:1000A0000404020202020202030303030303010227
:1000B00004081020408001020408102001020408F6
:1000C00010204D0A401211241FBECFEFD8E0DEBF32
:1000D000CDBF12E0A0E0B1E0E2E2FDE202C0059097
:1000E0000D92A231B107D9F723E0A2E1B2E001C03D
:1000F0001D92A93BB207E1F710E0C2E6D0E004C0D0
:100100002197FE010E943715C136D107C9F70E9419
:10011000000C0C9484160C9400000F931F93CF9343
:10012000DF93C0919803E9E9F3E0CD3211F0E8E9FB
:10013000F3E08F0120E030E0A901D801DD918D01CD
:1001400080ED8D0F8A3090F4AAE0B0E00E943D155A
:100150002D2FDD0F330B440B550B260F371F481F78
:10016000591F2053310941095109E7CFA4E6B0E0F6
:100170000E943D15AB01BC01DF01819190ED980F0C
:100180009A30D0F38E3259F511968C91119790EDEB
:10019000980F9A3020F5082E000C990BC0972AE092
:1001A000289F8001299F100D1124012E000C220B85
:1001B000330B400F511F621F731F12968C9190EDED
:1001C000980F9A3060F4082E000C990BC097092EF6
:1001D000000CAA0BBB0B480F591F6A1F7B1FCD32A7
:1001E00039F470956095509541955F4F6F4F7F4FF3
:1001F000CB01BA01DF91CF911F910F9108954F92DA
:100200005F926F927F928F929F92AF92BF92CF92A6
:10021000DF92EF92FF921F93CF93DF93C8E9D3E071
:10022000FE01C12CD12C7601119180ED810F8A3015
:10023000A8F4AAE0B0E0A70196010E943D15C12EE6
:10024000110FDD08EE08FF08C60ED71EE81EF91EC6
:1002500080E3C81AD108E108F108E6CFC701B6016A
:1002600024E630E040E050E00E94F6149B01AC012F
:1002700060EA76E881E090E00E94BE144B015C01E8
:100280009E01899190ED980F9A30D0F38E3221F52E
:10029000E901219680E1482E87E2582E612C712CCD
:1002A000A99180ED8A0F8A30B8F40A2E000CBB0B9E
:1002B000D097A30192010E944815860E971EA81E92
:1002C000B91EC301B2012AE030E040E050E00E94D4
:1002D000F61429013A01E4CFC701B60124E630E063
:1002E00040E050E00E94F61460E472E48FE090E099
:1002F0000E94BE146B017C01C501B4016D5F7F4F8C
:100300008F4F9F4F26E030E040E050E00E94F6140F
:10031000C701B601620F731F841F951FDF91CF9134
:100320001F91FF90EF90DF90CF90BF90AF909F9084
:100330008F907F906F905F904F900895DC01ED91CA
:10034000FC910190F081E02D0994AF92BF92CF9281
:10035000DF92EF92FF920F931F93CF93DF936C0185
:100360007B018B01040F151FEB015E01AE18BF0866
:10037000C017D10759F06991D601ED91FC91019018
:10038000F081E02DC6010995892B79F7C501DF9130
:10039000CF911F910F91FF90EF90DF90CF90BF9082
:1003A000AF900895FC01538D448D252F30E0842FAC
:1003B00090E0821B930B541710F0CF96089501978D
:1003C0000895FC01918D828D981761F0A28DAE0F7A
:1003D000BF2FB11D5D968C91928D9F5F9F73928F01
:1003E00090E008958FEF9FEF0895FC01918D828D2D
:1003F000981731F0828DE80FF11D858D90E00895FA
:100400008FEF9FEF0895FC01918D228D892F90E051
:10041000805C9F4F821B91098F73992708958FE508
:1004200092E00E94030221E0892B09F420E0822F50
:10043000089580E090E0892B29F00E940F0281113D
:100440000C9400000895FC01A48DA80FB92FB11DD4
:10045000A35ABF4F2C91848D90E001968F739927FA
:10046000848FA689B7892C93A089B1898C918370D8
:1004700080648C93938D848D981306C00288F389D1
:10048000E02D80818F7D80830895EF92FF920F93FE
:100490001F93CF93DF93EC0181E0888F9B8D8C8D30
:1004A00098131AC0E889F989808185FF15C09FB724
:1004B000F894EE89FF896083E889F98980818370E7
:1004C000806480839FBF81E090E0DF91CF911F9196
:1004D0000F91FF90EF900895F62E0B8D10E00F5FB7
:1004E0001F4F0F731127E02E8C8D8E110CC00FB68D
:1004F00007FCFACFE889F989808185FFF5CFCE0125
:100500000E942302F1CFEB8DEC0FFD2FF11DE35A7A
:10051000FF4FF0829FB7F8940B8FEA89FB898081A7
:100520008062CFCFCF93DF93EC01888D8823B9F021
:10053000AA89BB89E889F9898C9185FD03C08081EE
:1005400086FD0DC00FB607FCF7CF8C9185FFF2CF6B
:10055000808185FFEDCFCE010E942302E9CFDF919C
:10056000CF91089590E0FC01EE58FF4F2491FC01DB
:10057000E255FF4F3491FC01E656FF4FE491EE2324
:10058000C9F0222339F0233001F1A8F4213019F108
:10059000223029F1F0E0EE0FFF1FE057FF4FA59149
:1005A000B4918FB7F894EC91611126C030953E2339
:1005B0003C938FBF08952730A9F02830C9F024302C
:1005C00049F7809180008F7D03C0809180008F77F4
:1005D00080938000DFCF84B58F7784BDDBCF84B577
:1005E0008F7DFBCF8091B0008F778093B000D2CF0A
:1005F0008091B0008F7DF9CF3E2BDACFCF93DF9380
:1006000090E0FC01E255FF4F249186569F4FFC017C
:1006100084918823D1F090E0880F991FFC01E8595C
:10062000FF4FA591B491FC01E057FF4FC591D491C4
:1006300061110EC09FB7F8948C91E22FE0958E2344
:100640008C932881E223E8839FBFDF91CF910895A7
:100650008FB7F894EC91E22BEC938FBFF6CF8E30EE
:1006600008F08E508770806480937C0080917A00BF
:10067000806480937A0080917A0086FDFCCF80911F
:1006800078009091790008953FB7F89480915702CF
:1006900090915802A0915902B0915A0226B5A89B98
:1006A00005C02F3F19F00196A11DB11D3FBFBA2F04
:1006B000A92F982F8827BC01CD01620F711D811DC4
:1006C000911D42E0660F771F881F991F4A95D1F749
:1006D00008952FB7F894609153027091540280915D
:1006E0005502909156022FBF089520915D023091DE
:1006F0005E022817390771F490915B0280915C02C9
:10070000981741F0E0915B02F0E0EE5EFD4F8081D2
:1007100090E008958FEF9FEF08950895EF92FF9274
:100720000F931F93CF93DF93DC015C96ED90FC90C9
:100730005D97E114F10479F481E090E013969C93C5
:100740008E93129790E080E0DF91CF911F910F91EF
:10075000FF90EF9008955196ED91FC91529750962D
:100760008C915097982F90950FB75E962C915E972D
:10077000122F127021FD6095F8942081112319F138
:10078000282B2083E7012197F1F728E0462F50E03E
:10079000308160FF1AC0382B3083E7012197F1F7D1
:1007A000BA0175956795215089F7112381F08081F1
:1007B000892380830FBF5C968D919C910197F1F7FF
:1007C00081E090E0C1CF2923DCCF3923E5CF9081B0
:1007D000892BEFCF20915D0230915E0228173907F7
:1007E00071F480915C0220915B0290E0805C9F4FED
:1007F000821B910960E470E00E94E214089590E089
:1008000080E0089520915D0230915E02281739073B
:10081000B9F490915B0280915C02981789F0E091A5
:100820005B02F0E0EE5EFD4F808120915B0230E0E4
:100830002F5F3F4F2F73332720935B0290E0089583
:100840008FEF9FEF0895089590E080E00895CF9393
:10085000DF93EC0160E08E810E94B20261E08E8144
:100860000E94B20260E08E810E94B2028BE891E0A9
:100870000197F1F7DF91CF910895CF92DF92EF9238
:10088000FF920F931F93CF93DF936C017C0187E05E
:10089000E80EF11CD0E0C0E0062F10E0B8010C2EED
:1008A00002C0759567950A94E2F76170F70181912E
:1008B0007F010E94B2022196C430D10579F7C601AA
:1008C000DF91CF911F910F91FF90EF90DF90CF902C
:1008D0000C942704CF92DF92EF92FF920F931F9315
:1008E000CF93DF93EC01F62E642F8C810E94B2022D
:1008F0008D818F3F19F060E00E94B2020F2D10E051
:100900008F8584FF25C06E0187E0C80ED11CF12CB5
:10091000E12CB8010E2C02C0759567950A94E2F798
:100920006170F60181916F010E94B202FFEFEF1A30
:10093000FF0A88E0E816F10461F7CE01DF91CF915C
:100940001F910F91FF90EF90DF90CF900C942704B0
:10095000B80184E0759567958A95E1F7CE010E940C
:100960003D046F2DCE01DF91CF911F910F91FF902C
:10097000EF90DF90CF900C943D0440E0682F8EEF15
:1009800092E00C946A04CF93DF93613029F0909148
:100990000D03986090930D0360931103109212035E
:1009A00090E49093130380931403805C8093150369
:1009B00061E0809102030E94FE02809103038F3F59
:1009C00019F061E00E94FE0261E0809104030E9440
:1009D000FE02CEEFD2E09E012E5F324080910D03E9
:1009E00084FD0BC084E090E021962817390744F479
:1009F00061E08E810E94FE02EECF88E090E0F4CFAD
:100A00008BE39DE00197F1F760E0809102030E9483
:100A1000B20260E0809104030E94B202809103035D
:100A20008F3F19F060E00E94B20280910D0384FDB7
:100A300039C063E08EEF92E00E943D04CBE4D6E43F
:100A4000CE010197F1F763E08EEF92E00E943D0442
:100A50002197F1F763E08EEF92E00E943D0483E579
:100A600092E00197F1F762E08EEF92E00E943D0480
:100A700080910D0380620E94BD0484E080930E0388
:100A80008CE00E94BD0481E00E94BD048BE39FE1E5
:100A90000197F1F782E080930F0386E0DF91CF9119
:100AA0000C94BD0480620E94BD048BE496E401971F
:100AB000F1F780910D0380620E94BD0483E592E00E
:100AC0000197F1F780910D0380620E94BD04D0CFA1
:100AD00090911103691710F06FEF690FE62FF0E0A6
:100AE000E250FD4F9489890F80680C94BD0441E069
:100AF0000E946A0481E090E00895FB0101900020CB
:100B0000E9F73197AF01461B570BDC01ED91FC91E2
:100B10000280F381E02D09948F929F92AF92BF9251
:100B2000EF92FF920F931F93CF93DF93CDB7DEB772
:100B3000A1970FB6F894DEBF0FBECDBF7C01FA01BE
:100B4000CB0119A2223008F42AE08E010F5D1F4F5D
:100B5000822E912CB12CA12CBF01A50194010E94E1
:100B6000F614F901CA016A300CF5605DD8016E9384
:100B70008D01232B242B252B79F790E080E0109713
:100B800021F0BD01C7010E947D05A1960FB6F89422
:100B9000DEBF0FBECDBFDF91CF911F910F91FF90B0
:100BA000EF90BF90AF909F908F900895695CDECFDB
:100BB0004F925F926F927F928F929F92AF92BF926D
:100BC000CF92DF92EF92FF921F93CF93DF93EC01CE
:100BD0006A017B01822EAB019601CB01B6010E9416
:100BE000B91466E371E0811126C026013701E8944B
:100BF00077F82FEF3FEF4FE75FE7C301B2010E94A5
:100C0000B91481110CC02FEF3FEF4FE75FE7C3012D
:100C1000B2010E94EF126AE371E0181664F02FEF40
:100C20003FEF4FE75FE4C701B6010E944714181673
:100C3000A4F46EE371E0CE01DF91CF911F91FF909C
:100C4000EF90DF90CF90BF90AF909F908F907F906C
:100C50006F905F904F900C947D052FEF3FEF4FE723
:100C60005FECC701B6010E94EF1287FDE2CF20E0E2
:100C700030E0A901C701B6010E94EF12B12CA12CEE
:100C800087FF09C06DE2CE010E949E015C01F7FA68
:100C9000F094F7F8F094182D60E070E080E09FE3A6
:100CA000912C20E030E040E251E40E94F412939451
:100CB0009814B8F3A70196010E9483122B013C01FE
:100CC0000E9466136B017C010E9495139B01AC018D
:100CD000C301B2010E9482122B013C012AE0B7013C
:100CE000A601CE010E948C057C016EE2CE010E941D
:100CF0009E01E80EF91EEA0CFB1C115020F120E0C9
:100D000030E040E251E4C301B2010E944C142B01D7
:100D10003C010E9466134B01B12CA12C2AE0B501C5
:100D2000A401CE010E948C05E80EF91EC501B40194
:100D30000E9495139B01AC01C301B2010E94821273
:100D40002B013C01DACFC701DF91CF911F91FF90BA
:100D5000EF90DF90CF90BF90AF909F908F907F905B
:100D60006F905F904F9008950C947D051F920F92A5
:100D70000FB60F9211242F933F934F935F936F936E
:100D80007F938F939F93AF93BF93EF93FF938FE5E1
:100D900092E00E942302FF91EF91BF91AF919F914A
:100DA0008F917F916F915F914F913F912F910F9014
:100DB0000FBE0F901F9018951F920F920FB60F92B3
:100DC00011242F938F939F93EF93FF93E0916F02E2
:100DD000F09170028081E0917502F091760282FDBF
:100DE0001BC09081809178028F5F8F732091790270
:100DF000821741F0E0917802F0E0E15AFD4F958FC3
:100E000080937802FF91EF919F918F912F910F9096
:100E10000FBE0F901F9018958081F4CF1F920F92F4
:100E20000FB60F9211242F933F938F939F93AF93FD
:100E3000BF938091530290915402A0915502B091BA
:100E400056023091520223E0230F2D3758F50196B8
:100E5000A11DB11D2093520280935302909354021E
:100E6000A0935502B0935602809157029091580278
:100E7000A0915902B0915A020196A11DB11D809313
:100E8000570290935802A0935902B0935A02BF910F
:100E9000AF919F918F913F912F910F900FBE0F9027
:100EA0001F90189526E8230F0296A11DB11DD2CFE1
:100EB0001F920F920FB60F9211242F933F934F93CF
:100EC0005F936F937F938F939F93AF93BF93EF93B2
:100ED000FF93E0915D02F0915E02309749F0A685A4
:100EE000B7858585968D91FF14C09C918923A1F4C7
:100EF000FF91EF91BF91AF919F918F917F916F91F2
:100F00005F914F913F912F910F900FBE0F901F90C7
:100F100018959C91892361F7A389B4899C9185894F
:100F2000809589238C93868997890197F1F7608D45
:100F3000718DA685B785558538E020E0CB010197F6
:100F4000F1F7822F90E095958795282F4C914523B6
:100F500009F02068315091F7868D81FD20958091B0
:100F60005C0290E001968F73992730915B023817ED
:100F700099F0A0915C02B0E0AE5EBD4F2C938093DF
:100F80005C02828D938D0197F1F7A389B4898C91CE
:100F90009589892B8C93ACCF868D8160868FF1CF1C
:100FA0001F920F920FB60F9211242F923F924F92E1
:100FB0005F926F927F928F929F92AF92BF92CF92E9
:100FC000DF92EF92FF920F931F932F933F934F93D4
:100FD0005F936F937F938F939F93AF93BF93EF93A1
:100FE000FF93CF93DF9300D000D0CDB7DEB7F89456
:100FF0002091FC023091FD023A832983F12CE12CEF
:10100000D12CC12CA981BA8111968C9111978C1584
:101010001D04C1F0BCF01296ED91FC91EE0DFF1D88
:10102000FC83EB8380810E942F03AB81BC811996E6
:101030009C938E931897BFEFCB1ADB0AECE3EE0E6E
:10104000F11CE0CF312C212C10E000E050E6852E81
:101050005AEE952EA12CB12CA981BA8111968C91B2
:1010600011978017110609F00CF4EBC11296ED915F
:10107000FC91E20DF31DFC83EB8340A851A862A80C
:1010800073A8808D918DA28DB38D480E591E6A1E56
:101090007B1E40AA51AA62AA73AA84899589A6894F
:1010A000B7897201E81AF90A868597850C979787A0
:1010B00086878685978597FDC3C086859785873FF8
:1010C00099400CF0C0C0AB81BC811E968D919C9163
:1010D000EB81FC819787868780859185C0ACD1ACF8
:1010E0008C159D05CCF48285938565E070E00E94A7
:1010F000E214CB01880F991F680F791F6E157F05C9
:101100005CF42085318586A997A92817390724F42E
:101110008085918597AB86ABAB81BC8118968D910C
:101120009C911997C816D9069CF418962D913C915C
:101130001997D4968D919C91D5978217930744F473
:1011400018968D919C911997D5969C938E93D497D0
:10115000BBEFEB16F1040CF4ACC0EB81FC81808595
:101160009185C816D9060CF0A4C084858111A1C050
:101170008285938565E070E00E94E214CB01880FC0
:10118000991F680F791F6E157F050CF092C021E042
:10119000248784899589A689B789F201E81BF90B10
:1011A000AB81BC811B96FC93EE931A97FD01448A98
:1011B000558A668A778A83AD882371F013AE7C9650
:1011C000CD01C096AB81BC811A962D913C912193A3
:1011D00031938E179F07B1F7EB81FC8182AD882395
:1011E000A9F112AE21E023AFAB81BC8112968D91A3
:1011F0009C91139797FD08C01C962C9161E02111DA
:1012000001C060E00E94B202EB81FC81E480F580C5
:10121000F7FCEDC0868597856AE070E00E94E214D5
:101220007C836B8361E08E2D0E94FE022B813C81CA
:10123000232B09F0ACC060E08E2D0E94B202D7C013
:1012400090E080E045CF86EF99E042CFEB81FC81D2
:101250007C964B815C81425D5F4F30E020E0828173
:10126000938181939193280F391F4E175F07B9F728
:10127000AB81BC811A968D919C911B979F969C93F4
:101280008E939E97820F931F6AE070E00E94CE14A7
:101290009B0150E040E0C501B4010E941815EB81AC
:1012A000FC813783268321E0258786EF99E09787A5
:1012B0008687AB81BC8118968D919C9119978C156E
:1012C0009D053CF51C968C911C97882311F11C966A
:1012D0001C921C97D6964D915C91D797D4962D91E0
:1012E0003C91D597241B350B53963C932E935297E4
:1012F00052968D919C9197FD019695958795840FB7
:10130000951FEB81FC8191AF80AF95AB84AB97AB20
:1013100086ABF5ECEF16F9E0FF060CF465CFAB8178
:10132000BC8150968D919C915197D9969C938E93A8
:10133000D897E0E0F2E0D596FC93EE93D497D79659
:10134000FC93EE93D69754964D925D926D927C925B
:101350005797E1E0DA96EC93DA97DB961C92DB97ED
:101360001D961C921D9717961C921E92169728E5A3
:1013700032E01B963C932E931A971C961C921C9756
:1013800084E690E053969C938E9352972DCF8B8159
:101390009C818F3F910511F461E04ECFF701FF274B
:1013A000EE58FF4FE491E33071F150F4E130D1F0A9
:1013B000E23019F1AB81BC81A038B1056CF73BCFAD
:1013C000E73069F1E830A1F1E430A1F780918000C5
:1013D0008062809380002B813C8130938B0020932E
:1013E0008A0005C084B5806884BD9B8197BD0F5F6E
:1013F0001F4FBCE32B0E311C2FCE84B5806284BD01
:10140000AB81A8BDF4CF809180008068809380007C
:10141000EB81FC81F0938900E0938800E8CF809114
:10142000B00080688093B0003B813093B300DFCF81
:101430008091B00080628093B0008B818093B40073
:10144000D6CF81E0E981FA81808778940F900F9060
:101450000F900F90DF91CF91FF91EF91BF91AF91DE
:101460009F918F917F916F915F914F913F912F91BC
:101470001F910F91FF90EF90DF90CF90BF90AF90B2
:101480009F908F907F906F905F904F903F902F90A4
:101490000F900FBE0F901F9018950F931F931092EF
:1014A00062021092610208EE13E020E030E0009347
:1014B00063021093640220936502309366028AE00F
:1014C00091E09093600280935F0285EC90E09093AE
:1014D0006C0280936B0284EC90E090936E02809398
:1014E0006D0280EC90E09093700280936F0281EC2B
:1014F00090E0909372028093710282EC90E090935E
:1015000074028093730286EC90E09093760280934D
:101510007502109278021092790210927A0210925B
:101520007B024FEF5FEFBA014093420350934303B6
:10153000609344037093450310924A0310924B0347
:1015400010924C0310924D038FEF99ECAAE9BBE384
:101550008093520390935303A0935403B093550385
:1015600080935A0390935B03A0935C03B0935D0355
:101570008093620390936303A0936403B093650325
:1015800080936A0390936B03A0936C03B0936D03F5
:101590008093720390937303A0937403B0937503C5
:1015A00040937A0350937B0360937C0370937D0395
:1015B0008FEF90E0909383038093820340938603A0
:1015C00050938703609388037093890340938E033D
:1015D00050938F036093900370939103109296033E
:1015E0001092970382E08093A7031092A8031092B1
:1015F000A9031092AA031092AB031092AC031092AD
:10160000AD031092AE031092B0031092AF0310928C
:10161000B2031092B1031092980310922603109215
:101620002503009327031093280320932903309365
:101630002A0388E291E0909324038093230310927D
:101640003A031092390310923C0310923B0310921C
:101650003E0310923D031092400310923F036091AD
:1016600041036E7F6D7F609341036695617081E0F9
:10167000682788E00E94B20261E088E00E94FE02D2
:10168000E6EBF0E0E491E0933303E2EAF0E0E4918A
:10169000F0E0EE0FFF1FE057FF4F8591949190937C
:1016A00035038093340360E087E00E94FE0280915E
:1016B000410381FD04C061E087E00E94B20287E03F
:1016C00080932F03E5EBF0E0E491E0933003E1EA4F
:1016D000F0E0E491F0E0EE0FFF1FEA57FF4F859135
:1016E00094919093320380933103109220031092CF
:1016F0001F0382E090E0909322038093210386E110
:1017000093E09093FD028093FC0281E080931703A5
:101710008CE390E00E945F15FC018EE090E09183E5
:1017200080838FEF9FEF938382839583848382E00E
:1017300090E0A0E0B0E0808F918FA28FB38FDF01A7
:101740005C96CF01C0961D921D92A817B907D9F7D4
:101750001586178216828EEE92E093878287148612
:1017600010AA11AA12AA13AA148A158A168A178A0D
:1017700080E092E095AB84AB97AB86AB86E292E0DB
:10178000918B808B91AF80AF84E690E0938B828BBE
:1017900081E082AF13AE17861686F0931903E093AB
:1017A000180310920103109200038CE191E09093D2
:1017B000FF028093FE028CE0809302038FEF809300
:1017C00003038BE08093040385E08093050384E0AA
:1017D0008093060383E08093070382E080930803ED
:1017E0001092090310920A0310920B0310920C033B
:1017F00010920D0361E080E11F910F910C94C304DE
:10180000789484B5826084BD84B5816084BD85B5DB
:10181000826085BD85B5816085BD80916E008160E7
:1018200080936E001092810080918100826080938D
:10183000810080918100816080938100809180008F
:101840008160809380008091B10084608093B100BA
:101850008091B00081608093B00080917A008460B4
:1018600080937A0080917A00826080937A008091E0
:101870007A00816080937A0080917A0080688093FA
:101880007A001092C10010923E0310923D03109214
:101890003C0310923B0310923A03109239038DE9F6
:1018A00091E09093400380933F0390912F039631F2
:1018B00008F047C02DEB30E030933A032093390312
:1018C0002BE931E030933C0320933B032CE231E0E1
:1018D00030933E0320933D032091680084E09830CC
:1018E00048F031E09E3008F430E081E001C0880F1C
:1018F0003A95EAF7822B809368002DE630E0983025
:1019000050F02BE630E09E3030F02CE630E096319F
:1019100010F030E020E03093370320933603292F76
:1019200030E0983008F0BEC081E001C0880F9A9581
:10193000EAF78093380380913F0390914003019729
:10194000F1F780913D0390913E03892B49F1E0919D
:101950005D02F0915E0223E0E332F20709F1309775
:1019600039F0A389B4899C918589809589238C93CA
:10197000809141038E7F8093410310925C0210920C
:101980005B0283E293E090935E0280935D02E091BC
:101990003603F0913703808190913803892B80833F
:1019A00064E084E10E94C30462E471E08EEF92E09F
:1019B0000E94B406E0916F02F091700282E0808391
:1019C000E0916B02F0916C021082E0916D02F09157
:1019D0006E028FEC808310927702E0917302F09197
:1019E000740286E08083E0917102F091720280813E
:1019F00080618083E0917102F09172028081886041
:101A00008083E0917102F09172028081806880830E
:101A1000E0917102F091720280818F7D8083E0916C
:101A20001803F0911903118210828DE090E09383E6
:101A30008283F89486E292E0918B808B91AF80AFA5
:101A4000789410E000E0F12CE12C809117038E15C2
:101A50001F04A9F1A4F1C0911803D0911903C00F7C
:101A6000D11F8A819B8197FD07C061E00E94FE0221
:101A700060E08A810E94B2028C819D8197FD0CC03A
:101A800061E00E94FE02CC8161E08C2F0E94FE0288
:101A900060E08C2F0E94B2028FEFE81AF80A045C13
:101AA0001F4FD3CF9E3040F42850310981E001C050
:101AB000880F2A95EAF73DCF2E503109F7CF0E94C3
:101AC00044036053784F8F4F9F4F60931A03709376
:101AD0001B0380931C0390931D0310921E0310920E
:101AE000160310928000109282008CE08093810097
:101AF0008CE790E0909389008093880082E0809347
:101B00006F0078946BE471E08FE592E00E947D05B0
:101B100064E571E08FE592E00E947D05812C912CB7
:101B2000540100E010E0E0911803F0911903C68120
:101B3000D781F894858515867894882309F491C116
:101B400067E571E08FE592E00E94B4066E010D2E0C
:101B5000000CEE08FF082AE0B701A601F7FE0DC051
:101B60006DE28FE592E00E949E0144275527BA015D
:101B70004C195D096E097F092AE08FE592E00E9409
:101B80008C0564E571E08FE592E00E947D0560E0E0
:101B900080E00E9468056DE571E08EEF92E00E94A2
:101BA000B40660E086E00E9468052AE0B701A6015D
:101BB000F7FE0DC06DE28EEF92E00E949E01442779
:101BC0005527BA014C195D096E097F092AE08EEF8D
:101BD00092E00E948C0561E080E0C739D1054CF0AD
:101BE0000E94680564E671E08EEF92E00E94B40600
:101BF000C6C0E2970CF021C40E9468056DE771E051
:101C00008EEF92E00E94B4060E9469036B017C0192
:101C1000712C0E9469036C197D098E099F09683E29
:101C200073408105910508F404C2772009F49AC035
:101C300040905203509053036090540370905503AA
:101C4000C0905A03D0905B03E0905C03F0905D037A
:101C500080918E0390918F03A0919003B091910396
:101C60008F3F9F4FAF4FBF4F11F00E946903FFEFAF
:101C70004F16F9EC5F06FAE96F06FBE37F0609F4FD
:101C8000D3C3C301B2010E94971320E034E244E7BA
:101C900059E40E94F4122B013C01C701B6010E94D5
:101CA000971320E034E244E759E40E94F4126B01F8
:101CB0007C0166E971E083E293E00E94B40661EA88
:101CC00071E083E293E00E947D0564E571E083E2C8
:101CD00093E00E947D056DEB71E083E293E00E944A
:101CE000B40620E030E04AE754E4C301B2010E94A8
:101CF000EF12811103C0412C512C320126E030E05B
:101D0000B301A20183E293E00E94D80569EC71E07F
:101D100083E293E00E94B40620E030E04AE754E416
:101D2000C701B6010E94EF12811103C0C12CD12C52
:101D3000760126E030E0B701A60183E293E00E943D
:101D4000D8056AE183E293E00E949E0164E571E0B8
:101D500083E293E00E947D0564E571E083E293E015
:101D60000E947D052AE0B501A4018FE592E00E9462
:101D70008C0564E571E08FE592E00E947D0583E1CA
:101D80000E942F0397FD0196BC0175956795072E5C
:101D9000000C880B990B0E9497136B017C016EED70
:101DA00071E08FE592E00E94B40622E030E0B701D6
:101DB000A6018FE592E00E94D80567EF71E08FE5FC
:101DC00092E00E94B40662E080E00E9468056AEF3B
:101DD00071E08EEF92E00E94B40662E087E00E941C
:101DE000680522E030E0B701A6018EEF92E00E9484
:101DF000D80520E030E04CE052E4C701B6010E9473
:101E0000EF1287FF1FC363E080E00E94680561E076
:101E100072E08EEF92E00E94B4060E9444036B01D0
:101E20007C0184E6282E312C412C512C0E94440345
:101E30006C197D098E099F09683E734081059105E3
:101E4000A8F321E0221A31084108510888EEC80E93
:101E500083E0D81EE11CF11C21143104410451041B
:101E600029F70115110509F45ECE0E940F0288239F
:101E700009F459CE0E94000056CECA3209F405C1B9
:101E8000CC3209F0BDC2809196038C2780939603D3
:101E9000FCC09091A803F0E0E856FC4F1082D0916E
:101EA0009703DD2309F46AC120919803822F022E43
:101EB000000C990B3FEB320F363008F0EBC0C797A0
:101EC0008295807F90919903292F092E000C330B66
:101ED0004FEB490F463008F0E5C027533109820F18
:101EE00090919603891340C1D091AA03DD2309F490
:101EF000CFC08091AF039091B00301969093B0034F
:101F00008093AF0380918A0390918B03A0918C03FF
:101F1000B0918D038093860390938703A0938803E9
:101F2000B09389038091920390919303A0919403BD
:101F3000B091950380938E0390938F03A0939003A9
:101F4000B09391038091A703882309F4B4C0813032
:101F500009F060C08091460390914703A091480327
:101F6000B09149038093420390934303A0934403A9
:101F7000B093450380914E0390914F03A09150037D
:101F8000B091510380934A0390934B03A0934C0369
:101F9000B0934D038091560390915703A09158033D
:101FA000B09159038093520390935303A093540329
:101FB000B093550380915E0390915F03A0916003FD
:101FC000B091610380935A0390935B03A0935C03E9
:101FD000B0935D0380916E0390916F03A0917003A5
:101FE000B091710380936A0390936B03A0936C0389
:101FF000B0936D038091760390917703A09178035D
:10200000B09179038093720390937303A093740348
:10201000B09375038091A8038F5F8093A8031092FB
:10202000A90381E0CA3209F080E080939703D111BF
:102030007D2E8FE592E00E940302892B09F4E9CD01
:102040008FE592E00E94E101C82F8091AB0390914F
:10205000AC03A091AD03B091AE030196A11DB11DDB
:102060008093AB039093AC03A093AD03B093AE0306
:10207000C43209F4B7C1E091A903C5320CF0FDCE1A
:10208000CA3019F0CD3009F0BBC1EF3008F401CFF0
:10209000D0E0C0CF2156263018F48755910910CFD3
:1020A000C0970ECF9156963018F42755310917CFA7
:1020B0002053310914CF8091660390916703A0915A
:1020C0006803B09169038093620390936303A093C4
:1020D0006403B09365038091460390914703A091F8
:1020E0004803B09149038093420390934303A09324
:1020F0004403B09345038091560390915703A091F8
:102100005803B09159038093520390935303A093C3
:102110005403B093550380915E0390915F03A091A7
:102120006003B091610380935A0390935B03A09383
:102130005C03B0935D038091840390918503909339
:1021400083038093820380917E0390917F03A0910B
:102150008003B091810380937A0390937B03A093D3
:102160007C03B0937D0356CF8091B1039091B2036D
:1021700001969093B2038093B1038ACF91111DC051
:1021800048E953E0AAE8B1E0CA01FC012191CF017E
:10219000222309F46EC13D912317B9F3A0E9B1E000
:1021A000FA018191AF01882309F467C19D918917D4
:1021B000B9F322E02093A7032DCFE091A703E230EB
:1021C00009F466CF80919803882309F461CF20E257
:1021D000E29FF0011124E92B3197E932F10508F073
:1021E00019CFEB50FF4E0C9437153B1156116B1164
:1021F00086119111CB11D211DC11E7110A100A10CE
:102200000A100A100A100A100A100A100A100A10FE
:102210000A100A100A100A100A100A100A100A10EE
:102220000A100A100A100A100A103B115011561118
:102230006B1186119111AC11B7111E11E8E9F3E091
:1022400020E030E0A901519080ED850D8A3008F042
:1022500099C0AAE0B0E00E943D15252D550C330B26
:10226000440B550B260F371F481F591F20533109A8
:1022700041095109E8CF0E948D0060934603709395
:10228000470380934803909349030E946903609336
:102290008A0370938B0380938C0390938D03BACE43
:1022A00091E0813409F47BC090E079C00E94FF0086
:1022B0006093560370935703809358039093590388
:1022C0000E94690360939203709393038093940335
:1022D000909395039FCE833509F0DACE8091560313
:1022E00090915703A0915803B0915903B095A095D0
:1022F000909581959F4FAF4FBF4F8093560390931A
:102300005703A0935803B093590384CE0E94FF0053
:1023100060935E0370935F03809360039093610307
:1023200079CE873509F0B4CE80915E0390915F033A
:10233000A0916003B0916103B095A09590958195AF
:102340009F4FAF4FBF4F80935E0390935F03A09367
:102350006003B09361035ECE0E948D0060936E03B4
:1023600070936F03809370039093710353CE0E9418
:102370008D00609376037093770380937803909336
:10238000790348CE20934E0330934F03409350037C
:10239000509351033FCE91E081330CF485CF90935D
:1023A000AA0338CE88E993E00E945C1299279093A3
:1023B0008503809384032ECE0E948D0060937E035C
:1023C00070937F03809380039093810323CE0E94B8
:1023D0008D00609366037093670380936803909306
:1023E000690318CE1092A9031092A80310929603C5
:1023F00082E08093A703109297031092AA0319CE4C
:10240000EE3040F481E08E0F8093A903F0E0E856AF
:10241000FC4FC0838091970381110BCE809196036E
:10242000C827C093960305CE412C512C2AE7622E73
:1024300024E4722E730162013CCC0E94680567EDB2
:1024400071E0D2CB20E030E048E152E4C701B601B0
:102450000E94471463E0181634F480E00E94680577
:102460006AE072E0D6CC80E00E94680567ED71E01A
:10247000D0CCF1E0F093A703CDCD1092A703CACD45
:1024800088E291E0909324038093230380915D027E
:1024900090915E028352934071F4E0913603F09183
:1024A000370390818091380380958923808310922F
:1024B0005E0210925D020895FC0188279927E89436
:1024C00021912032E9F3293010F02E30C8F32B325D
:1024D00041F02D3239F4689404C00E947A12820FC0
:1024E000911D219120532A30C0F31EF490958195BF
:1024F0009F4F08957AE0979F902D879F802D910D93
:10250000112408955058BB27AA270E949A120C94B0
:102510000D140E94FF1338F00E94061420F039F4C5
:102520009F3F19F426F40C94FC130EF4E095E7FB9E
:102530000C94F613E92F0E941E1458F3BA17620781
:1025400073078407950720F079F4A6F50C944014DE
:102550000EF4E0950B2EBA2FA02D0B01B9019001BE
:102560000C01CA01A0011124FF27591B99F0593F02
:1025700050F4503E68F11A16F040A22F232F342F4A
:102580004427585FF3CF469537952795A795F04098
:102590005395C9F77EF41F16BA0B620B730B840BAD
:1025A000BAF09150A1F0FF0FBB1F661F771F881F65
:1025B000C2F70EC0BA0F621F731F841F48F48795BD
:1025C00077956795B795F7959E3F08F0B0CF9395AF
:1025D000880F08F09927EE0F9795879508950E9428
:1025E000D21308F481E008950E9408130C940D148E
:1025F0000E94061458F00E94FF1340F029F45F3F38
:1026000029F00C94F61351110C9441140C94FC1302
:102610000E941E1468F39923B1F3552391F3951B7F
:10262000550BBB27AA2762177307840738F09F5FF3
:102630005F4F220F331F441FAA1FA9F335D00E2E60
:102640003AF0E0E832D091505040E695001CCAF7CD
:102650002BD0FE2F29D0660F771F881FBB1F261790
:1026600037074807AB07B0E809F0BB0B802DBF0167
:10267000FF2793585F4F3AF09E3F510578F00C9436
:10268000F6130C9441145F3FE4F3983ED4F386951F
:1026900077956795B795F7959F5FC9F7880F911D57
:1026A0009695879597F90895E1E0660F771F881F43
:1026B000BB1F621773078407BA0720F0621B730BF6
:1026C000840BBA0BEE1F88F7E09508950E9426143C
:1026D00088F09F5798F0B92F9927B751B0F0E1F0E3
:1026E000660F771F881F991F1AF0BA95C9F714C093
:1026F000B13091F00E944014B1E008950C94401460
:10270000672F782F8827B85F39F0B93FCCF38695CB
:1027100077956795B395D9F73EF490958095709528
:1027200061957F4F8F4F9F4F0895E89409C097FBA5
:102730003EF490958095709561957F4F8F4F9F4F98
:102740009923A9F0F92F96E9BB279395F6958795DC
:1027500077956795B795F111F8CFFAF4BB0F11F49F
:1027600060FF1BC06F5F7F4F8F4F9F4F16C0882346
:1027700011F096E911C0772321F09EE8872F762F7C
:1027800005C0662371F096E8862F70E060E02AF0BD
:102790009A95660F771F881FDAF7880F96958795A9
:1027A00097F90895990F0008550FAA0BE0E8FEEF7E
:1027B00016161706E807F907C0F012161306E40705
:1027C000F50798F0621B730B840B950B39F40A26FE
:1027D00061F0232B242B252B21F408950A2609F4DC
:1027E000A140A6958FEF811D811D089597F99F67E0
:1027F00080E870E060E008959FEF80EC0895002489
:102800000A941616170618060906089500240A9455
:1028100012161306140605060895092E0394000CDB
:1028200011F4882352F0BB0F40F4BF2B11F460FF6A
:1028300004C06F5F7F4F8F4F9F4F089557FD905893
:10284000440F551F59F05F3F71F04795880F97FB74
:10285000991F61F09F3F79F087950895121613062E
:102860001406551FF2CF4695F1DF08C0161617065D
:102870001806991FF1CF8695710561050894089592
:10288000E894BB2766277727CB0197F908950E9424
:10289000D21308F48FEF08950E945F140C940D1466
:1028A0000E94FF1338F00E94061420F0952311F0C7
:1028B0000C94F6130C94FC1311240C9441140E94F4
:1028C0001E1470F3959FC1F3950F50E0551F629F42
:1028D000F001729FBB27F00DB11D639FAA27F00D79
:1028E000B11DAA1F649F6627B00DA11D661F829FA0
:1028F0002227B00DA11D621F739FB00DA11D621F85
:10290000839FA00D611D221F749F3327A00D611DA1
:10291000231F849F600D211D822F762F6A2F112483
:102920009F5750409AF0F1F088234AF0EE0FFF1FB6
:10293000BB1F661F771F881F91505040A9F79E3F0D
:10294000510580F00C94F6130C9441145F3FE4F3AE
:10295000983ED4F3869577956795B795F795E79563
:102960009F5FC1F7FE2B880F911D9695879597F96C
:1029700008950E94D213880B990B0895DB018F9361
:102980009F930E943D15BF91AF91A29F800D911D15
:10299000A39F900DB29F900D11240895AA1BBB1BFD
:1029A00051E107C0AA1FBB1FA617B70710F0A61B4F
:1029B000B70B881F991F5A95A9F780959095BC0170
:1029C000CD01089597FB072E16F4009407D077FDEC
:1029D00009D00E94CE1407FC05D03EF49095819555
:1029E0009F4F0895709561957F4F0895A1E21A2E2B
:1029F000AA1BBB1BFD010DC0AA1FBB1FEE1FFF1FA3
:102A0000A217B307E407F50720F0A21BB30BE40BF2
:102A1000F50B661F771F881F991F1A9469F7609539
:102A20007095809590959B01AC01BD01CF010895F3
:102A3000052E97FB1EF400940E942F1557FD07D01A
:102A40000E94F61407FC03D04EF40C942F155095F9
:102A50004095309521953F4F4F4F5F4F089590958A
:102A60008095709561957F4F8F4F9F4F0895EE0F22
:102A7000FF1F0590F491E02D09940E945015A59F29
:102A8000900DB49F900DA49F800D911D1124089569
:102A9000B7FF0C943D150E943D15821B930B0895C2
:102AA000A29FB001B39FC001A39F700D811D11248F
:102AB000911DB29F700D811D1124911D08950F93DA
:102AC0001F93CF93DF938230910510F482E090E062
:102AD000E091B703F091B80330E020E0B0E0A0E06F
:102AE000309799F42115310509F44AC0281B390B98
:102AF00024303105D8F58A819B816115710589F1F2
:102B0000FB0193838283FE0111C0408151810281C8
:102B1000138148175907E0F04817590799F410979F
:102B200061F012960C93129713961C933296CF0174
:102B3000DF91CF911F910F9108950093B7031093E8
:102B4000B803F4CF2115310551F04217530738F07F
:102B5000A901DB019A01BD01DF01F801C1CFEF013D
:102B6000F9CF9093B8038093B703CDCFFE01E20F66
:102B7000F31F819391932250310939832883D7CF52
:102B80002091B5033091B603232B41F4209102012B
:102B9000309103013093B6032093B50320910001D7
:102BA000309101012115310541F42DB73EB7409117
:102BB000040150910501241B350BE091B503F09100
:102BC000B603E217F307A0F42E1B3F0B28173907B3
:102BD00078F0AC014E5F5F4F2417350748F04E0F79
:102BE0005F1F5093B6034093B503819391939FCF9A
:102BF000F0E0E0E09CCFCF93DF930097E9F0FC0199
:102C0000329713821282A091B703B091B803ED01FD
:102C100030E020E01097A1F420813181820F931FD2
:102C20002091B5033091B6032817390709F061C028
:102C3000F093B603E093B503DF91CF910895EA01D5
:102C4000CE17DF07E8F54A815B819E0141155105EA
:102C5000B1F7E901FB83EA8349915991C40FD51F6C
:102C6000EC17FD0761F4808191810296840F951F16
:102C7000E90199838883828193819B838A83F0E031
:102C8000E0E012968D919C9113970097B9F52D91E4
:102C90003C911197CD010296820F931F2091B503AD
:102CA0003091B6032817390739F6309751F510924D
:102CB000B8031092B703B093B603A093B503BCCF8B
:102CC000D383C28340815181840F951FC817D907D0
:102CD00061F44E5F5F4F88819981480F591F51837E
:102CE00040838A819B81938382832115310509F07A
:102CF000B0CFF093B803E093B7039ECFFD01DC01A2
:102D0000C0CF13821282D7CF10E0C2E6D0E004C059
:102D1000FE010E9437152196C336D107C9F7F894F2
:022D2000FFCFE3
:102D22000000B9038000000000004502A501D201A5
:102D320092020302E101F501000000007705A501FE
:102D420024042304000000008E03A50124048D0343
:102D5200EA03020475036E616E00696E66006F76A7
:102D6200660057656C636F6D652100537461727400
:102D7200656421000D0A0042504D3A200042504D38
:102D82003A2020004E65656473204D656469636175
:102D92006C20417474656E74696F6E2100456D65B7
:102DA2007267656E6379212121004750524D4300BD
:102DB20047504747410041542B434D47463D310D53
:102DC200004154202B20434D4753203D20222B39D4
:102DD200317878787878787878787822004C6174CD
:102DE2006974756465203D2000204C6F6E676974BC
:102DF200756465203D20004E6F726D616C00544514
:102E02004D5052415455524520696E2043656C73B2
:102E1200697573203D20002A430054454D503A20E5
:102E220000467265657A696E67004665766572214D
:022E320000009E
:00000001FF
